:020000040800F2
:1000000000000220C9430008392700083B270008E8
:100010003D2700083F270008412700080000000096
:10002000000000000000000000000000432700085E
:10003000452700080000000047270008492700085E
:10004000194400081944000819440008194400081C
:10005000194400081944000819440008194400080C
:1000600019440008194400081944000819440008FC
:1000700019440008194400081944000819440008EC
:1000800019440008194400081944000819440008DC
:1000900019440008194400081944000819440008CC
:1000A00019440008194400081944000819440008BC
:1000B00019440008194400081944000819440008AC
:1000C000194400081944000819440008194400089C
:1000D000194400081944000819440008194400088C
:1000E000194400081944000819440008194400087C
:1000F000194400081944000819440008194400086C
:10010000194400081944000819440008194400085B
:10011000194400081944000819440008194400084B
:1001200051270008692700081944000819440008ED
:10013000194400081944000819440008194400082B
:10014000194400081944000819440008194400081B
:10015000194400081944000819440008194400080B
:1001600019440008194400081944000819440008FB
:100170001944000819440008194400080000000050
:080180001944000819440008AD
:1001C00010B5054C237833B9044B13B10448AFF391
:1001D00000800123237010BDB8090020000000003A
:1001E000FCAB000808B5034B1BB103490348AFF350
:1001F000008008BD00000000BC090020FCAB000826
:1002000081F0004102E000BF83F0004330B54FEAC7
:1002100041044FEA430594EA050F08BF90EA020F34
:100220001FBF54EA000C55EA020C7FEA645C7FEAC7
:10023000655C00F0E2804FEA5454D4EB5555B8BFEA
:100240006D420CDD2C4480EA020281EA030382EA5B
:10025000000083EA010180EA020281EA0303362DED
:1002600088BF30BD11F0004F4FEA01314FF4801CC0
:100270004CEA113102D0404261EB410113F0004FD2
:100280004FEA03334CEA133302D0524263EB430389
:1002900094EA050F00F0A780A4F10104D5F1200E27
:1002A0000DDB02FA0EFC22FA05F2801841F1000182
:1002B00003FA0EF2801843FA05F359410EE0A5F156
:1002C00020050EF1200E012A03FA0EFC28BF4CF087
:1002D000020C43FA05F3C01851EBE37101F000453D
:1002E00007D54FF0000EDCF1000C7EEB00006EEB4A
:1002F0000101B1F5801F1BD3B1F5001F0CD34908D4
:100300005FEA30004FEA3C0C04F101044FEA44522A
:1003100012F5800F80F09A80BCF1004F08BF5FEAB1
:10032000500C50F1000041EB045141EA050130BD91
:100330005FEA4C0C404141EB0101013C28BFB1F5A3
:10034000801FE9D291F0000F04BF01460020B1FAEE
:1003500081F308BF2033A3F10B03B3F120020CDAC1
:100360000C3208DD02F1140CC2F10C0201FA0CF09F
:1003700021FA02F10CE002F11402D8BFC2F1200C04
:1003800001FA02F120FA0CFCDCBF41EA0C019040BA
:10039000E41AA2BF01EB0451294330BD6FEA040403
:1003A0001F3C1CDA0C340EDC04F11404C4F12002EE
:1003B00020FA04F001FA02F340EA030021FA04F300
:1003C00045EA030130BDC4F10C04C4F1200220FA57
:1003D00002F001FA04F340EA0300294630BD21FA95
:1003E00004F0294630BD94F0000F83F4801306BF5B
:1003F00081F480110134013D4EE77FEA645C18BF4F
:100400007FEA655C29D094EA050F08BF90EA020FE5
:1004100005D054EA000C04BF1946104630BD91EADD
:10042000030F1EBF0021002030BD5FEA545C05D1E0
:100430004000494128BF41F0004130BD14F580041F
:100440003CBF01F5801130BD01F0004545F0FE4193
:1004500041F470014FF0000030BD7FEA645C1ABFC8
:10046000194610467FEA655C1CBF0B46024650EAFF
:10047000013406BF52EA033591EA030F41F400212B
:1004800030BD00BF90F0000F04BF0021704730B5B1
:100490004FF4806404F132044FF000054FF0000186
:1004A00050E700BF90F0000F04BF0021704730B547
:1004B0004FF4806404F1320410F0004548BF40421C
:1004C0004FF000013EE700BF42004FEAE2014FEA71
:1004D00031014FEA02701FBF12F07F4393F07F4F4C
:1004E00081F06051704732F07F4208BF704793F04F
:1004F0007F4F04BF41F40021704730B54FF4607462
:1005000001F0004521F000411CE700BF50EA010264
:1005100008BF704730B54FF000050AE050EA01020D
:1005200008BF704730B511F0004502D5404261EB7D
:1005300041014FF4806404F132045FEA915C3FF4BE
:10054000D8AE4FF003025FEADC0C18BF03325FEA5B
:10055000DC0C18BF033202EBDC02C2F1200300FA0C
:1005600003FC20FA02F001FA03FE40EA0E0021FA31
:1005700002F11444BDE600BF70B54FF0FF0C4CF41F
:10058000E06C1CEA11541DBF1CEA135594EA0C0FD1
:1005900095EA0C0F00F0DEF82C4481EA030621EA0C
:1005A0004C5123EA4C5350EA013518BF52EA033547
:1005B00041F4801143F4801338D0A0FB02CE4FF0F9
:1005C0000005E1FB02E506F00042E0FB03E54FF029
:1005D0000006E1FB03569CF0000F18BF4EF0010E21
:1005E000A4F1FF04B6F5007F64F5407404D25FEA1D
:1005F0004E0E6D4146EB060642EAC62141EA5551D0
:100600004FEAC52040EA5E504FEACE2EB4F1FD0C11
:1006100088BFBCF5E06F1ED8BEF1004F08BF5FEA8F
:10062000500E50F1000041EB045170BD06F0004641
:1006300046EA010140EA020081EA0301B4EB5C04EE
:10064000C2BFD4EB0C0541EA045170BD41F48011E6
:100650004FF0000E013C00F3AB8014F1360FDEBF0B
:10066000002001F0004170BDC4F10004203C35DAE7
:100670000C341BDC04F11404C4F1200500FA05F36A
:1006800020FA04F001FA05F240EA020001F000420B
:1006900021F0004110EBD37021FA04F642EB060181
:1006A0005EEA430E08BF20EAD37070BDC4F10C04AB
:1006B000C4F1200500FA04F320FA05F001FA04F26F
:1006C00040EA020001F0004110EBD37041F100015B
:1006D0005EEA430E08BF20EAD37070BDC4F1200566
:1006E00000FA05F24EEA020E20FA04F301FA05F2CE
:1006F00043EA020321FA04F001F0004121FA04F276
:1007000020EA020000EBD3705EEA430E08BF20EA45
:10071000D37070BD94F0000F0FD101F0004640007F
:1007200041EB010111F4801F08BF013CF7D041EA01
:10073000060195F0000F18BF704703F00046520005
:1007400043EB030313F4801F08BF013DF7D043EAD6
:100750000603704794EA0C0F0CEA135518BF95EA8C
:100760000C0F0CD050EA410618BF52EA4306D1D113
:1007700081EA030101F000414FF0000070BD50EA32
:10078000410606BF1046194652EA430619D094EABC
:100790000C0F02D150EA013613D195EA0C0F05D1A6
:1007A00052EA03361CBF104619460AD181EA0301FA
:1007B00001F0004141F0FE4141F470014FF00000B2
:1007C00070BD41F0FE4141F4780170BD70B54FF04D
:1007D000FF0C4CF4E06C1CEA11541DBF1CEA1355CD
:1007E00094EA0C0F95EA0C0F00F0A7F8A4EB0504AF
:1007F00081EA030E52EA03354FEA013100F08880A6
:100800004FEA03334FF0805545EA131343EA12636E
:100810004FEA022245EA111545EA10654FEA002623
:100820000EF000419D4208BF964244F1FD0404F5DC
:10083000407402D25B084FEA3202B61A65EB030538
:100840005B084FEA32024FF480104FF4002CB6EBF5
:10085000020E75EB030E22BFB61A754640EA0C0075
:100860005B084FEA3202B6EB020E75EB030E22BFB5
:10087000B61A754640EA5C005B084FEA3202B6EBF6
:10088000020E75EB030E22BFB61A754640EA9C00B5
:100890005B084FEA3202B6EB020E75EB030E22BF85
:1008A000B61A754640EADC0055EA060E18D04FEA43
:1008B000051545EA16754FEA06164FEAC30343EAE3
:1008C00052734FEAC2025FEA1C1CC0D111F4801FB0
:1008D0000BD141EA00014FF000004FF0004CB6E7A9
:1008E00011F4801F04BF01430020B4F1FD0C88BF48
:1008F000BCF5E06F3FF6AFAEB5EB030C04BFB6EB53
:10090000020C5FEA500C50F1000041EB045170BD45
:100910000EF0004E4EEA113114EB5C04C2BFD4EB72
:100920000C0541EA045170BD41F480114FF0000EF6
:10093000013C90E645EA060E8DE60CEA135594EA72
:100940000C0F08BF95EA0C0F3FF43BAF94EA0C0F75
:100950000AD150EA01347FF434AF95EA0C0F7FF4EA
:1009600025AF104619462CE795EA0C0F06D152EA3E
:1009700003353FF4FDAE1046194622E750EA410622
:1009800018BF52EA43067FF4C5AE50EA41047FF433
:100990000DAF52EA43057FF4EBAE12E74FF0FF3C98
:1009A00006E000BF4FF0010C02E000BF4FF0010C69
:1009B0004DF804CD4FEA410C7FEA6C5C4FEA430CE2
:1009C00018BF7FEA6C5C1BD001B050EA410C0CBF31
:1009D00052EA430C91EA030F02BF90EA020F002093
:1009E000704710F1000F91EA030F58BF994208BFFA
:1009F00090422CBFD8176FEAE37040F001007047B7
:100A00004FEA410C7FEA6C5C02D150EA013C07D10D
:100A10004FEA430C7FEA6C5CD6D152EA033CD3D058
:100A20005DF8040B704700BF8446104662468C4652
:100A30001946634600E000BF01B5FFF7B7FF002885
:100A400048BF10F1000F01BD4DF808EDFFF7F4FFAE
:100A50000CBF012000205DF808FB00BF4DF808ED39
:100A6000FFF7EAFF34BF012000205DF808FB00BF5C
:100A70004DF808EDFFF7E0FF94BF012000205DF87E
:100A800008FB00BF4DF808EDFFF7CEFF94BF012033
:100A900000205DF808FB00BF4DF808EDFFF7C4FF2C
:100AA00034BF012000205DF808FB00BF4FEA41027F
:100AB000B2F1E04324BFB3F5001CDCF1FE5C0DD9BC
:100AC00001F0004C4FEAC0024CEA5070B2F1004F06
:100AD00040EB830008BF20F00100704711F0804F09
:100AE00021D113F13872BCBF01F00040704741F4CE
:100AF00080114FEA5252C2F11802C2F1200C10FAD2
:100B00000CF320FA02F018BF40F001004FEAC123B5
:100B10004FEAD32303FA0CFC40EA0C0023FA02F359
:100B20004FEA4303CCE77FEA625307D150EA01332F
:100B30001EBF4FF0FE4040F44000704701F00040FF
:100B400040F0FE4040F40000704700BF53B94AB97E
:100B5000002908BF00281CBF4FF0FF314FF0FF30C5
:100B600000F074B9ADF1080C6DE904CE00F006F8A0
:100B7000DDF804E0DDE9022304B070472DE9F04719
:100B8000089D04468E46002B4DD18A42944669D971
:100B9000B2FA82F252B101FA02F3C2F1200120FA54
:100BA00001F10CFA02FC41EA030E94404FEA1C48A2
:100BB000210CBEFBF8F61FFA8CF708FB16E341EA9E
:100BC000034306FB07F199420AD91CEB030306F124
:100BD000FF3080F01F81994240F21C81023E634445
:100BE0005B1AA4B2B3FBF8F008FB103344EA0344E9
:100BF00000FB07F7A7420AD91CEB040400F1FF33FE
:100C000080F00A81A74240F207816444023840EA3A
:100C10000640E41B00261DB1D4400023C5E9004373
:100C20003146BDE8F0878B4209D9002D00F0EF80F6
:100C30000026C5E9000130463146BDE8F087B3FA29
:100C400083F6002E4AD18B4202D3824200F2F98011
:100C5000841A61EB030301209E46002DE0D0C5E914
:100C6000004EDDE702B9FFDEB2FA82F2002A40F060
:100C70009280A1EB0C014FEA1C471FFA8CFE012663
:100C8000200CB1FBF7F307FB131140EA01410EFB07
:100C900003F0884208D91CEB010103F1FF3802D2AE
:100CA000884200F2CB804346091AA4B2B1FBF7F0A8
:100CB00007FB101144EA01440EFB00FEA64508D9CB
:100CC0001CEB040400F1FF3102D2A64500F2BB8008
:100CD0000846A4EB0E0440EA03409CE7C6F1200757
:100CE000B34022FA07FC4CEA030C20FA07F401FA9D
:100CF00006F31C43F9404FEA1C4900FA06F3B1FB26
:100D0000F9F8200C1FFA8CFE09FB181140EA01418A
:100D100008FB0EF0884202FA06F20BD91CEB010127
:100D200008F1FF3A80F08880884240F28580A8F17F
:100D300002086144091AA4B2B1FBF9F009FB1011D1
:100D400044EA014100FB0EFE8E4508D91CEB01016F
:100D500000F1FF346CD28E456AD90238614440EA12
:100D60000840A0FB0294A1EB0E01A142C846A64692
:100D700056D353D05DB1B3EB080261EB0E0101FA1B
:100D800007F722FA06F3F1401F43C5E90071002678
:100D90003146BDE8F087C2F12003D8400CFA02FCCE
:100DA00021FA03F3914001434FEA1C471FFA8CFEDE
:100DB000B3FBF7F007FB10360B0C43EA064300FBCE
:100DC0000EF69E4204FA02F408D91CEB030300F16C
:100DD000FF382FD29E422DD9023863449B1B89B223
:100DE000B3FBF7F607FB163341EA034106FB0EF3AC
:100DF0008B4208D91CEB010106F1FF3816D28B4259
:100E000014D9023E6144C91A46EA004638E72E4624
:100E1000284605E70646E3E61846F8E64B45A9D21C
:100E2000B9EB020864EB0C0E0138A3E74646EAE78B
:100E3000204694E74046D1E7D0467BE7023B614439
:100E400032E7304609E76444023842E7704700BFA2
:100E500001F0FF01102A2BDB10F0070F08D010F86B
:100E6000013B013A8B422DD010F0070F42B3F6D16F
:100E7000F0B441EA012141EA014122F007047FF088
:100E800000070023F0E80256083C85EA010586EADF
:100E9000010685FA47F5A3FA87F586FA47F6A5FA1B
:100EA00087F68EB9EED1F0BC01F0FF0102F0070227
:100EB00032B110F8013B013A83EA010313B1F8D1D2
:100EC0000020704701387047002D06BF35460338B3
:100ED000073815F0010F07D1013015F4807F02BFEC
:100EE000013015F4C03F0130F0BC0138704700BF3D
:100EF000844641EA000313F003036DD1403A41D325
:100F000051F8043B40F8043B51F8043B40F8043BE3
:100F100051F8043B40F8043B51F8043B40F8043BD3
:100F200051F8043B40F8043B51F8043B40F8043BC3
:100F300051F8043B40F8043B51F8043B40F8043BB3
:100F400051F8043B40F8043B51F8043B40F8043BA3
:100F500051F8043B40F8043B51F8043B40F8043B93
:100F600051F8043B40F8043B51F8043B40F8043B83
:100F700051F8043B40F8043B51F8043B40F8043B73
:100F8000403ABDD2303211D351F8043B40F8043B13
:100F900051F8043B40F8043B51F8043B40F8043B53
:100FA00051F8043B40F8043B103AEDD20C3205D323
:100FB00051F8043B40F8043B043AF9D2043208D01B
:100FC000D2071CBF11F8013B00F8013B01D30B888D
:100FD00003806046704700BF082A13D38B078DD06B
:100FE00010F003038AD0C3F10403D21ADB071CBF3D
:100FF00011F8013B00F8013B80D331F8023B20F8A7
:10100000023B7BE7043AD9D3013A11F8013B00F8DF
:10101000013BF9D20B7803704B7843708B78837067
:101020006046704700000000000000000000000063
:1010300000000000000000000000000000000000B0
:1010400090F800F06DE9024520F007016FF0000C08
:1010500010F0070491F820F040F049804FF00004B0
:101060006FF00700D1E9002391F840F000F108008B
:1010700082FA4CF2A4FA8CF283FA4CF3A2FA8CF3C3
:101080004BBBD1E9022382FA4CF200F10800A4FA2A
:101090008CF283FA4CF3A2FA8CF3E3B9D1E904237E
:1010A00082FA4CF200F10800A4FA8CF283FA4CF3B5
:1010B000A2FA8CF37BB9D1E9062301F1200182FA6F
:1010C0004CF200F10800A4FA8CF283FA4CF3A2FA75
:1010D0008CF3002BC6D0002A04BF04301A4612BA83
:1010E000B2FA82F2FDE8024500EBD2007047D1E986
:1010F000002304F00305C4F100004FEAC50514F015
:10110000040F91F840F00CFA05F562EA05021CBFE5
:1011100063EA050362464FF00004A9E74FEA410C79
:101120007FEA6C5C02D150EA013C0AD14FEA430CE1
:101130007FEA6C5C02D152EA033C02D14FF000001E
:1011400070474FF0010070474FEA410212F500125C
:1011500015D211D56FF47873B3EB625212D94FEAFE
:10116000C12343F0004343EA505311F0004F23FAE8
:1011700002F018BF404270474FF00000704750EA3D
:10118000013005D111F0004008BF6FF000407047FA
:101190004FF00000704700BF06E04FF0000CC1F8B0
:1011A00000C0013A01461846B2B103460833D0EDFB
:1011B000007A90ED017A67EEA77A27EE077A77EE4C
:1011C000877A081DF5EEC07AF1EE10FAE5DBF1EE54
:1011D000E77AC1ED007AE4E7704730B54FF0000ED2
:1011E0001DE032F81EC04FEA9C0C0EF1010332F8EC
:1011F00013309B0850F82C4050F8235040F82C50E6
:1012000040F823400CF1010C50F82C40013350F809
:10121000235040F82C5040F823400EF1020E714547
:10122000DFD830BD2DE9F04F2DED0E8B8DB081460E
:10123000079108920B930691069B4FEAD30A4FF051
:10124000000E0EEB0A010EEB4A030AEB030503EB5B
:101250004A020AEB020602EB4A070AEB070B4FEAC7
:10126000CE0809EBCE0090ED007A4FEAC20C09EBF4
:10127000C202D2ED007A77EE276A37EE677ACC00A9
:10128000019409EBC1010291D1ED005AF10009EB83
:10129000C6060396D6ED007A35EEA76A75EEE75AD4
:1012A000DE0009EBC30393ED005AFC00049409EB44
:1012B000C707D7ED007A75EE274A75EE677AEC001E
:1012C000059409EBC5050995D5ED003A4FEACB0425
:1012D0000A9409EBCB0B9BED004A33EE845A73EE74
:1012E000C43A76EEE40A76EEA46A36EE451A36EE95
:1012F000056A36EE865A80ED005A76EEC66AC2ED71
:10130000006A08F10408C84498ED006A0CF1040C66
:10131000CC44DCED006A36EE265A76EE664A019C35
:1013200004344C4494ED006A04314944D1ED006A20
:1013300036EE263A36EE666A04364E4496ED004A9C
:10134000049A151D4D44D5ED006A34EE262A34EE7C
:10135000664A059A04324A44D2ED006A0A9804307B
:101360004844D0ED002A76EEA21A76EEE26A75EED7
:10137000422A35EE025A33EE612A33EE213A75EEF7
:10138000031AC8ED001A35EE435A8CED005A30EEC0
:10139000825A83ED005A30EEC23A87ED003A32EEBF
:1013A000C15A86ED005A31EE225A85ED005A35EECB
:1013B000E35ADFEDF12A25EE225A75EEA35A65EEC7
:1013C000A25A36EE663A23EE223A76EE266A66EEA8
:1013D000A26A77EE453A37EE057A37EEE55A77EEB0
:1013E000A57A74EEC35A34EE836A74EE664A74EEDC
:1013F000266A37EE264A029B83ED004A37EE667A6C
:101400008BED007A33EEA47A039E86ED007A73EEBC
:10141000E43A099DC5ED003A36EE677A84ED007A2C
:1014200077EE867AC0ED007A75EEC57AC1ED007A66
:1014300035EE255A82ED005A069B9E44079B734564
:101440003FF6FFAEBAF1070F40F2BA8101230A93CB
:1014500000230993D046099C0B9B1C4404EB4402D7
:1014600004EB8403E71803EB4406E500089800EB5F
:10147000C401D1ED008A21462401099100EB01113C
:1014800091ED008A4FEAC20C00EBC20292ED000A15
:1014900009984101089A02EB4012D2ED000ADA00E5
:1014A000089800EBC30393ED001AFB0000EBC7079D
:1014B000D7ED001AF70000EBC60696ED002A0435BA
:1014C00006460544D5ED002A0434044494ED003A60
:1014D0000CF104003044D0ED003A0431314491ED78
:1014E000004A04323244D2ED004A0433334493EDCF
:1014F000005A04373744D7ED005A0A9B9A460AEB44
:1015000008000AEB480308EB030403EB480208EB6E
:10151000020602EB480108EB010B4FEACA0E09EB89
:10152000CA0595ED009A4FEAC20C09EBC202D2ED52
:10153000007A79EE276A39EE67AAC700019709EBAE
:10154000C000029090ED006AF00009EBC606039619
:10155000D6ED007A36EE277A36EE67CADF0009EB61
:10156000C30393ED006ACE0009EBC1010491D1EDF4
:10157000007A76EE279A76EE677AE10009EBC404EA
:101580000594D4ED00AA4FEACB0409EBCB0B9BEDFD
:10159000006A3AEE869A3AEEC66A36EEE9DA76EEF6
:1015A000A96A37EE49EA37EE097A36EE879A85ED71
:1015B000009A76EEC7EA0EF1040ECE449EED00BA14
:1015C0000CF1040CCC44DCED006A3BEE267A3BEED9
:1015D00066BA019D04354D44D5ED00BA0430484447
:1015E000D0ED006A7BEEA6CA7BEEE6BA04374F4424
:1015F000D7ED00AA04364E44D6ED006A7AEEA69ADC
:101600007AEEE6AA0431494491ED009A04344C4440
:10161000D4ED006A79EE26DA79EE666A37EE699AD9
:1016200037EE297A7CEEED9A7CEEADCA7DEE29DAB2
:101630003DEE69DA77EE2C9ACEED009A37EE6C7AB1
:1016400079EE4E9A3EEE099A60EEAECA24EE07EAB3
:1016500020EE877A64EE2EEA7CEE8ECAC2ED00CAD6
:1016600037EE6E7A8CED007A28EE2D7A63EE29CA79
:1016700068EE299A63EE2DDA37EE2C7A83ED007A44
:1016800079EEED9AC7ED009A21EE8D7A65EE099A12
:1016900021EE899A25EE0DDA37EE297A049A82ED49
:1016A000007A39EE4D9A86ED009A3CEE469A9FED0F
:1016B000327A29EE079A3CEE066A26EE076A3BEE7E
:1016C000E6CA2CEE07CA7BEEA66A66EE876A7AEE59
:1016D000499A3AEE099A77EEC6BA77EE867A7BEEA9
:1016E0004CCA3BEE0C6A3AEEE6AA7AEEA66A39EEEE
:1016F00026BA39EE667A79EE8AAA79EECA9A76EE39
:10170000676A77EE867A3CEEEBAA3BEEAC9A28EE5F
:101710008B6A62EEA6BA68EEA66A22EE8BBA36EE45
:101720002B6A029B83ED006A76EECB6AC5ED006AF8
:1017300062EE076A25EEA7BA62EE277A25EE876A7F
:1017400036EE8B7A8BED007A77EEC67AC4ED007AAE
:1017500061EE2A7A24EE8A6A21EE0A7A64EEAA6A97
:1017600077EE867A039EC6ED007A37EE667A80EDD4
:10177000007A60EE296A01E0F304353F23EE896ABE
:1017800060EE097A23EEA97A76EE866A059CC4EDAE
:10179000006A77EEC77AC1ED007A069B9A44079BF0
:1017A00053453FF6ACAE0A9B01330A9398453FF68A
:1017B00052AE0B9BDB009BB20B93CDF818803BE540
:1017C0000DB0BDEC0E8BBDE8F08F00BF2DE9F041F0
:1017D0002DED028B90B006460846358801EB850753
:1017E00074684FEA550801EB880E07EB880CED088A
:1017F0003A460B46CFE093ED005A8DED0C5A93ED2F
:10180000016A8DED0D6A93ED021A8DED0E1A93EDBE
:10181000037A8DED0F7A92ED000A8DED080AD2ED74
:10182000010ACDED090A92ED023A8DED0A3AD2EDA8
:10183000031ACDED0B1A9EED002A8DED042ADEED84
:10184000012ACDED052A9EED024A8DED064ADEED18
:10185000034ACDED074ADCED005ACDED005ADCED30
:10186000016ACDED016ADCED023ACDED023ADCED24
:10187000037ACDED037A35EE008A83ED008A36EEE9
:10188000208A83ED018A31EE038A83ED028A37EEE6
:10189000218A83ED038A35EE405A8DED085A36EEE3
:1018A000606A8DED096A31EE433A8DED0A3A37EE02
:1018B000617A8DED0B7A72EE251ACEED001A72EE7A
:1018C000A61ACEED011A74EE231ACEED021A74EEAA
:1018D000A71ACEED031A75EEC25ACDED005A76EE78
:1018E000E26ACDED016A73EEC42ACDED022A77EEED
:1018F000E47ACDED037AD4ED004A94ED014A65EE29
:10190000243A26EE042A26EE246A25EE045A73EEC3
:10191000823AC2ED003A36EE456A82ED016A25EE62
:10192000846A26EEA45A66EE846A65EEA45A36EE00
:10193000456A8CED006A76EEA56ACCED016A94EDFD
:10194000026AD4ED035A23EE065A67EE254A27EEC3
:10195000067A63EE256A35EE245A82ED025A37EE96
:10196000667A82ED037A62EEA56A27EE865A67EE02
:10197000A57A22EE867A76EEC56ACCED026A77EE1B
:10198000877ACCED037A013D103410320CF1100C43
:101990000EF1100E1033002D7FF42DAF1FFA88F8D2
:1019A000022372684146FFF73DFC022372684146FC
:1019B0003846FFF737FC10B0BDEC028BBDE8F08174
:1019C0002DE9F04F2DED048B95B0054606900C46A1
:1019D000079103885B0801EB8302039201EBC301CB
:1019E0000E46049101EB83000590171FA0F1040C33
:1019F0000CEB83016D685B080293234694ED007A3B
:101A00003446A6F10408D6ED007A37EE272A37EEE1
:101A1000677AD3ED017AD6ED016A77EEA62A77EEE2
:101A2000E67A92ED013A73EE073AD0ED016A73EE71
:101A3000E63ACDED103AD2ED005A37EEE54A90ED98
:101A4000006A34EE064A8DED114A72EE654A74EE74
:101A5000C64ACDED0C4A32EEC35A35EE665A8DEDCC
:101A60000D5A37EE437A36EE877A8DED087A75EEA9
:101A7000A77A77EEC67ACDED097A75EE825A36EE00
:101A8000256A9E461E46083683ED006AD2ED016A3D
:101A900076EEA26A034690ED016A76EE866ACEED96
:101AA000016A10460832C0ED003A80ED014A204636
:101AB0000830C4ED004A84ED015A1C46083384ED19
:101AC000007AC4ED017A05F1080A05F1100405F168
:101AD000180E029DA5F1020B4FEA5B0B22E1D6ED39
:101AE000006AD0ED007A76EEA73A76EEE76A96EDD8
:101AF000017AD0ED017A37EE274A37EE677AD2EDD8
:101B0000017A37EEA62A93ED013A32EE432A8DEDA3
:101B1000102AD2ED004A77EE645A93ED006A75EE12
:101B2000865ACDED115A73EEE42A72EEC62ACDED37
:101B30000C2A34EE675A35EE435A8DED0D5A76EE87
:101B4000E76A33EE263A8DED083A34EE877A77EE7F
:101B5000467ACDED097A74EEA34A36EE246A35460C
:101B6000083586ED006A019592ED017A37EE047A28
:101B7000D3ED016A37EE267A86ED017A57ED016AD8
:101B80001CED017A76EE878A76EEC76A97ED007AC9
:101B90009CED000A77EE001A37EE400AD8ED000AF5
:101BA00091ED001A30EEC19A39EE264A8DED124AB7
:101BB00018ED018A70EE483A11ED017A73EE873A1A
:101BC000CDED133A78EEC84A74EEC74ACDED0E4A11
:101BD00031EEE06A36EE416A8DED0F6A79EE666AA3
:101BE000CDED0A6A37EE487A37EE407A8DED0B7A02
:101BF00070EEA10A31EE201AA7F1080587ED001A50
:101C000058ED011A71EEA81A11ED011A71EE811A40
:101C100047ED011A0AF10809DAED001A9AED011AE6
:101C200062EE210A25EE810A65EEA15A22EE012A12
:101C300070EE800A02F1080AC2ED000A75EEC25A7F
:101C4000C2ED015A63EE815A24EE212A24EE014AA4
:101C500063EEA13A75EEC25AA8F10806C8ED005A23
:101C600034EE234A08ED014A94ED004AD4ED015ABE
:101C7000103462EE843A25EE252A25EE045A62EEEF
:101C8000A52A73EE823A02460832C0ED003A35EEDC
:101C9000625A80ED015A26EE445A64EEA53A64EE8B
:101CA000844A26EE256A75EE635AACF10807CCED3E
:101CB000005A36EE646A0CED016A9EED006ADEEDB4
:101CC000015A0EF1180E23EE065A67EEA54A67EE8A
:101CD000867A23EE253A35EE245A1846083083EDED
:101CE000005A77EEC37AC3ED017A67EE257A26EEC5
:101CF000865A66EEA56A27EE067A77EEC57AA1F1D6
:101D0000080CC1ED007A36EE877A01ED017A0BF10D
:101D1000FF3B034610465246CA466146BC46B046A3
:101D20002F46019EBBF1000F7FF4D9AE96ED004A1D
:101D3000D0ED004A34EE242A34EE644A96ED015A7E
:101D4000D0ED017A75EE272A35EE675AD2ED017A89
:101D500077EE845AD3ED014A75EEE45ACDED105A70
:101D600092ED003A75EE436AD3ED003A76EEA36A3F
:101D7000CDED116A32EE436A36EE636A8DED0C6A80
:101D800032EEE77A37EE647A8DED0D7A34EE674AFB
:101D900074EE844ACDED084A33EE055A75EE637A47
:101DA000CDED097A33EE023A73EE833AC6ED003A8E
:101DB00092ED015A35EE225A93ED014A35EE045A5E
:101DC00086ED015ADAED003A9AED014A25EEA35A62
:101DD00026EE843A66EEA36A65EE845A35EE035A1F
:101DE00082ED005A76EEE56AC2ED016A94ED005A82
:101DF000D4ED015A66EE056A27EE254A27EE057AEC
:101E000026EE256A76EE846AC0ED006A37EE467AE1
:101E100080ED017A9EED006ADEED016A24EE867A9D
:101E200067EEA65A67EE867A64EEA64A37EE257A02
:101E300083ED007A77EEE47AC3ED017ABDF80840CD
:101E40000423069D6A6821460798FFF7EBF90423EF
:101E50006A6821460398FFF7E5F904236A6821467A
:101E60000498FFF7DFF904236A6821460598FFF715
:101E7000D9F915B0BDEC048BBDE8F08F2DE9F04128
:101E800006460C46174698460588012A0FD0B5F538
:101E9000807F21D025D8402D2AD019D9802D34D04B
:101EA000B8F1000F36D1012F3AD0BDE8F08101F131
:101EB000040C002109E0DCED007AF1EE677A63465C
:101EC0000CF1080CC3ED007A0131A942F3D3DEE72F
:101ED000102D1AD0202DE3D121463046FFF770FD9A
:101EE000DEE7B5F5006FF7D009D9B5F5805FD7D13A
:101EF0000123726829462046FFF794F9D0E7B5F52B
:101F0000007FF5D0B5F5806FCAD121463046FFF786
:101F10005DFCC5E7B268B1892046FFF75EF9C2E70C
:101F200007EE905AF8EE677AF7EE006A86EEA77A27
:101F300000230DE0D4ED007A67EE877AC4ED007AD5
:101F4000D4ED017A67EEC77AC4ED017A0834013323
:101F5000AB42EFD3A9E7000000B585B000230093A2
:101F60000193029303931548154A0260436083600E
:101F70000361037680F820304FF08052C2624FF048
:101F800000628262C3600123C36180F83030436124
:101F900000F0BAFD60B90023009301220192029380
:101FA0006946064800F0F6FE28B905B05DF804FB66
:101FB00000F022F9EFE700F01FF9F6E7D40900205E
:101FC0000020014000B585B00023009301930293E7
:101FD00003931548154A02604360836003610376EA
:101FE00080F820304FF08052C2624FF0006282626F
:101FF000C3600123C36180F83030436100F084FD89
:1020000060B90123009301930023029369460648B7
:1020100000F0C0FE28B905B05DF804FB00F0ECF854
:10202000EFE700F0E9F8F6E71C0A00200022014083
:1020300030B58BB0044600230593069307930893AD
:1020400009930368404A934204D0404A93423DD0EA
:102050000BB030BD002501953D4B5A6C42F48072A7
:102060005A645A6C02F480720192019A02951A6BBA
:1020700042F001021A631B6B03F001030293029BFF
:10208000012305930323069305A9324801F0C4F9FF
:102090003148324B036045608560C5604FF4806312
:1020A00003614FF4006343614FF4005383614FF4C5
:1020B0008073C3610562456201F024F818B9264BAC
:1020C000A3639C63C4E700F097F8F8E70025039545
:1020D0001F4B5A6C42F480625A645A6C02F480625C
:1020E0000392039A04951A6B42F001021A631B6B68
:1020F00003F001030493049B022305930323069337
:1021000005A9144801F088F91548164B03604FF0F3
:10211000806343608560C5604FF4806303614FF462
:10212000006343614FF4005383614FF48073C361D4
:102130000562456200F0E6FF18B9094BA3639C6392
:1021400086E700F059F8F8E700200140002201403E
:102150000038024000000240640A0020106402407F
:10216000C40A00202864024010B582B00024019403
:102170000D4B1A6B42F480021A631B6B03F480034D
:102180000193019B22462146382000F0E1FE3820D1
:1021900000F016FF22462146392000F0D9FE3920F2
:1021A00000F00EFF02B010BD0038024084B00022E3
:1021B0000192104B196B41F004011963196B01F086
:1021C0000401019101990292196B41F08001196398
:1021D000196B01F080010291029903921A6B42F08F
:1021E00001021A631B6B03F001030393039B04B00A
:1021F000704700BF0038024072B6FEE700B595B0E8
:102200003022002108A802F033F90023039304933D
:102210000593069307930193204A116C41F0805176
:102220001164126C02F080520192019A02931C4BCD
:102230001A6842F480421A601B6803F480430293D8
:10224000029B012308934FF48033099302220E92DC
:102250004FF480030F930423109390211191129255
:10226000139308A801F0CAF998B90F230393022326
:102270000493002305934FF4A05306934FF4805327
:102280000793042103A801F01FFC20B915B05DF8E5
:1022900004FBFFF7B1FFFFF7AFFF00BF00380240BC
:1022A0000070004000000000F8B52DED028B00F03A
:1022B00065FBFFF7A3FFFFF779FFFFF755FF00F07E
:1022C000E3FA00F091FAFFF747FEFFF77BFEC24802
:1022D00000F0A6F94FF48062C049C14800F040FC0C
:1022E0004FF48062BF49C04800F03AFCBF4801F09B
:1022F000F1FCBF4B1B78002BFBD0002431E0B74B27
:1023000033F81400FEF7CEF8AFA3D3E90023FEF7AD
:1023100033F965000022B74BFEF72EF9FEF7C6FB36
:10232000B54EE70006EBC4031860AE4B33F814005B
:10233000FEF7B8F8A4A3D3E90023FEF71DF90022A5
:10234000AC4BFEF719F9FEF7B1FBAC4B1F443860FC
:102350006A1C06EB82060021316003EB82031960E0
:102360000134B4F5806FCADBA34DA54E01230022D2
:1023700029463046FFF782FDA04C0123002221466A
:102380003046FFF77BFD4FF480629E492846FEF7FA
:1023900003FF4FF480629C492046FEF7FDFE05F2E4
:1023A00004531E6805F5A0652868FEF78DF841EC1A
:1023B000180B3046FEF788F8B0EE481AF0EE681AAF
:1023C00041EC100B08F094F951EC100BFEF76EFB8A
:1023D0008E4D286004F204531E6804F5A064206842
:1023E000FEF772F841EC180B3046FEF76DF8B0EED0
:1023F000481AF0EE681A41EC100B08F079F951EC2C
:10240000100BFEF753FB07EE900A814B186095ED19
:10241000007A77EE677A17EE900AFEF755F80022F9
:102420007C4BFEF7A9F86AA3D3E90023FEF7CEF9A7
:10243000FEF73CFB784B1860FEF746F802460B4669
:10244000764802F067F86A4B00221A70A6E0634BE8
:1024500033F81400FEF726F85BA3D3E90023FEF758
:102460008BF865000022634BFEF786F8FEF71EFB33
:10247000614EE70006EBC40318605A4B33F81400B2
:10248000FEF710F850A3D3E90023FEF775F80022F9
:10249000584BFEF771F8FEF709FB584B1F443860A4
:1024A0006A1C06EB82060021316003EB820319608F
:1024B0000134B4F5806FCADB4F4D514E0123002229
:1024C00029463046FFF7DAFC4C4C01230022214616
:1024D0003046FFF7D3FC4FF480624A492846FEF7A6
:1024E0005BFE4FF4806248492046FEF755FE05F238
:1024F00004531E6805F5A0652868FDF7E5FF41EC6B
:10250000180B3046FDF7E0FFB0EE481AF0EE681AFF
:1025100041EC100B08F0ECF851EC100BFEF7C6FA8A
:102520003A4D286004F204531E6804F5A064206844
:10253000FDF7CAFF41EC180B3046FDF7C5FFB0EEC2
:10254000481AF0EE681A41EC100B08F0D1F851EC83
:10255000100BFEF7ABFA07EE900A2D4B186095EDC5
:10256000007A77EE677A17EE900AFDF7ADFF00224A
:10257000284BFEF701F816A3D3E90023FEF726F94E
:10258000FEF794FA244B1860FDF79EFF02460B46B7
:10259000224801F0BFFF164B00221A704FF48062F0
:1025A0000E490F4800F0DCFA4FF480620D490E48E6
:1025B00000F0D6FA0D4801F08DFB0D4B1B78002B77
:1025C000FBD0002475E700BF6666666666660A4053
:1025D0004AD8124DFB210940847B0020280B0020A3
:1025E000D4090020281300201C0A00203C7B002076
:1025F000240B00200000303F281B0020283B002037
:1026000028BA0008285B0020286B00202C7B0020C3
:10261000307B002000806640287B002038DA0008EC
:1026200008B5054B1860054B1868002302221946AF
:10263000806801F083FF08BD347B00200C0000207F
:10264000022801D80120704708B501F0E7FE0923F0
:102650000360002008BD000010B5013801280AD829
:1026600014464FF0FF3392B20748006801F0CDFDE9
:1026700040B9204610BD01F0D1FE092303604FF0A0
:10268000FF30F7E70520F5E7347B0020022801D86A
:102690000020704708B501F0C1FE092303604FF028
:1026A000FF3008BD08B501F0B9FE092303604FF003
:1026B000FF3008BD08B548B94FF0FF330122084884
:1026C000006801F00EFE40B9012008BD01F0A6FE31
:1026D000092303604FF0FF30F7E70520F5E700BF5F
:1026E000347B002008B5022804D84FF400534B6017
:1026F000002008BD01F092FE09230360F8E7000006
:1027000082B0002100910B4B5A6C42F480425A6413
:102710005A6C02F480420092009A01911A6C42F0C5
:1027200080521A641B6C03F080530193019B02B02A
:10273000704700BF00380240FEE7FEE7FEE7FEE715
:10274000FEE770477047704708B500F031F908BDE3
:1027500008B5034800F072FD024B01221A7008BD53
:10276000640A0020240B002008B5024800F066FD32
:1027700008BD00BFC40A00200120704708B501F061
:102780004DFE162303604FF0FF3008BD08B54FF033
:10279000FF31FFF7F3FFFEE708B503460B4A126867
:1027A00042B10A4A106803446A46934206D8074A6F
:1027B000136008BD054A06491160F2E701F02EFEDC
:1027C0000C2303604FF0FF30F3E700BF387B00209D
:1027D000187C0020034AD2F8883043F47003C2F812
:1027E0008830704700ED00E000B587B00023029309
:1027F000039304930593009301931548154A0260CF
:102800004360836040F6C902C26003618023836134
:1028100001F002FB98B94FF48053029302A90C48CF
:1028200001F033FB70B92023009300230193694624
:10283000074801F0A9FB40B907B05DF804FBFFF7BA
:10284000DBFCE8E7FFF7D8FCEDE7FFF7D5FCF3E7A3
:102850003C7B0020000400400268094B9A4200D0F3
:10286000704782B000230193064B1A6C42F00202BB
:102870001A641B6C03F002030193019B02B07047C2
:10288000000400400038024008B50A480A4B0360C3
:102890004FF4E133436000238360C36003610C2283
:1028A00042618361C36101F081FC00B908BDFFF79B
:1028B000A3FCFBE7847B00200010014000B589B039
:1028C000002303930493059306930793026803F18F
:1028D000804303F588339A4202D009B05DF804FBC7
:1028E0000021019103F594335A6C42F010025A64AE
:1028F0005A6C02F010020192019A02911A6B42F096
:1029000001021A631B6B03F001030293029B4FF455
:10291000C0630393022304930323069307230793BF
:1029200003A9024800F078FDD7E700BF000002408D
:1029300010B504460E4B18784FF47A73B3FBF0F3DE
:102940000C4A1068B0FBF3F000F048FB68B90F2C9C
:1029500001D901200AE0002221464FF0FF3000F0AB
:10296000F7FA054B1C60002000E0012010BD00BFFD
:1029700004000020000000200800002008B50B4BD8
:102980001A6842F400721A601A6842F480621A608F
:102990001A6842F480721A60032000F0C7FA0F2010
:1029A000FFF7C6FFFFF7ACFE002008BD003C024069
:1029B000034A1168034B1B780B441360704700BF38
:1029C000C87B002004000020014B1868704700BF3E
:1029D000C87B00204A4B5A6822F440325A605A6839
:1029E00041680A435A600268536823F48073536055
:1029F00002685368016943EA01235360026853681F
:102A000023F0407353600268536881680B4353603E
:102A10000268936823F40063936002689368C16856
:102A20000B439360826A374B9A4257D0026893688F
:102A300023F07063936002689368816A0B4393602C
:102A40000268936823F04053936002689368C16AF8
:102A50000B4393600268936823F00203936002685B
:102A60009368017E43EA4103936090F82030002B85
:102A70003FD00268536843F40063536002685368B0
:102A800023F46043536001684B68426A013A43EAA9
:102A900042334B600268D36A23F47003D362016847
:102AA000CB6AC269013A43EA0253CB620268936877
:102AB00023F4007393600268936890F8301043EA3F
:102AC000412393600268936823F4806393600268F3
:102AD0009368416943EA8123936070470268936871
:102AE00023F0706393600268936823F0405393600F
:102AF000B0E70268536823F400635360CAE700BF7D
:102B0000002301400100000F38B310B50446036CE8
:102B100043B1236C13F0100F0BD00120002384F875
:102B20003C3010BDFFF784FA0023636484F83C3026
:102B3000EFE7236C23F4885323F0020343F00203EE
:102B400023642046FFF746FF00206064236C23F0D7
:102B5000030343F001032364E0E701207047000012
:102B600010B582B013460022019290F83C20012A51
:102B700000F0AE800446012280F83C200268906894
:102B800010F0010F13D1906840F001009060534A9B
:102B90001068534AA2FB0020800C00EB400001901B
:102BA00002E001980138019001980028F9D12268CB
:102BB000906810F4807F03D0906820F4807090605B
:102BC0002268906810F0010F77D0206C20F4E0604C
:102BD00020F0010040F480702064526812F4806F8D
:102BE00005D0226C22F4405242F480522264226CBE
:102BF00012F4805F36D0626C22F00602626400221A
:102C000084F83C20A26B3748D063A26B364810642E
:102C1000A26B3648D06422686FF0220010602068F2
:102C2000426842F0806242602068826842F48072AA
:102C3000826020680A4600F14C01A06B00F0C8FADF
:102C40002B4B5B6813F01F0F27D12368294A93424F
:102C500011D002F58072934207D0274A934214D0D4
:102C6000002033E000226264C9E702F50072526876
:102C700012F01F0FF1D19A6812F0405F2AD19A68C2
:102C800042F080429A60002020E002F58072526893
:102C900012F0100FEFD0002018E02368154A93427D
:102CA00001D0002012E09A6812F0405F14D19A68B7
:102CB00042F080429A60002008E0236C43F0100349
:102CC0002364636C43F001036364002002B010BD11
:102CD0000220FBE70020F9E70020F7E700000020D2
:102CE00083DE1B43232D0008012D00080D2D000855
:102CF000002301400020014000220140704770473E
:102D000008B5806BFFF7FBFF08BD704708B5806B07
:102D100040230364436C43F004034364FFF7F5FF6F
:102D200008BD08B50346806B026C12F0500F25D128
:102D3000036C43F40073036403689A6812F0405F05
:102D400019D1027EBAB9DA6A12F4700F03D09A6808
:102D500012F4806F0FD15A6822F020025A60036C7F
:102D600023F480730364036C13F4805F03D1036C5A
:102D700043F001030364FFF7C1FF08BD026C12F0CA
:102D8000100F04D1826BD26C18469047F5E7FFF71D
:102D9000BCFFF2E730B482B00023019390F83C30DE
:102DA000012B00F0BB80012380F83C300B68092B1D
:102DB00041D90468E2689BB203EB43031E3B4FF02A
:102DC000070C0CFA03F322EA0303E3600468E268E9
:102DD0000B8803EB43031E3B8D6805FA03F3134393
:102DE000E3604B68062B3DD80468626B03EB8303FA
:102DF000053B4FF01F0C0CFA03F322EA0303636355
:102E00000468626B4B6803EB8303053BB1F800C0B9
:102E10000CFA03F3134363630268414B9A4251D0A7
:102E200002683F4B9A4256D0002380F83C30184647
:102E300002B030BC7047046822699BB203EB4303C5
:102E40004FF0070C0CFA03F322EA03032361046832
:102E500022690B8803EB43038D6805FA03F31343E0
:102E60002361BEE70C2B16D805682A6B03EB83039E
:102E7000233B1F2404FA03F322EA03032B630568B0
:102E80002A6B4B6803EB8303233B0C8804FA03F3A0
:102E900013432B63C0E70568EA6A03EB8303413BF6
:102EA0001F2404FA03F322EA0303EB620568EA6ACB
:102EB0004B6803EB8303413B0C8804FA03F3134391
:102EC000EB62A9E70B68122BAAD1164A536843F4A8
:102ED00080035360A4E70B68103B012BA4D8114A70
:102EE000536843F4000353600B68102B9CD10E4BC6
:102EF0001B6802F1467202F52E3202F28332A2FB07
:102F000003239B0C03EB83035B00019302E0019B13
:102F1000013B0193019B002BF9D185E7022087E754
:102F2000002001400023014000000020074AD36830
:102F300023F4E0631B041B0C000200F4E060034375
:102F400043F0BF6343F40033D360704700ED00E00B
:102F500000B5194BDB68C3F30223C3F1070CBCF1C6
:102F6000040F28BF4FF0040C03F1040EBEF1060F4E
:102F700018D9033B4FF0FF3E0EFA0CFC21EA0C017E
:102F800099400EFA03F322EA0303194300280BDBEE
:102F90000901C9B200F1604000F5614080F80013FA
:102FA0005DF804FB0023E5E700F00F000901C9B25A
:102FB000024B1954F4E700BF00ED00E014ED00E00F
:102FC000002807DB00F01F02400901239340024A5A
:102FD00042F82030704700BF00E100E00138B0F156
:102FE000807F0BD24FF0E0235861054AF02182F830
:102FF00023100020986107221A6170470120704752
:1030000000ED00E030B405682C6824F480242C60C6
:10301000046863608368402B05D003689960036887
:10302000DA6030BC704703689A600368D960F8E7DB
:1030300010B40368D9B210390C4AA2FB014212093C
:103040000B4CA25CC2655F2909D923F47F7323F07E
:10305000030304338365806D5DF8044B704723F4EC
:103060007F7323F003038365F5E700BFABAAAAAA29
:1030700060DA0008836A826992B9012B0AD0022BB8
:1030800002D00BB100207047C36A13F0807F28D1B3
:1030900000207047C36AB3F1C07F24D0002070477E
:1030A000B2F5005F09D0022B25D9032B25D1C36AC5
:1030B00013F0807F23D100207047032B03D8DFE873
:1030C00003F01404140A00207047C36A13F0807FD1
:1030D0000DD100207047C36AB3F1C07F09D0002032
:1030E0007047012070470120704701207047012080
:1030F0007047012070470120704700207047012071
:103100007047000070B50446FFF75EFC002C5BD0F2
:103110000546022384F83530002384F834302268D1
:10312000136823F00103136023681A6812F0010F7B
:103130000AD0FFF749FC431B052BF5D92023636513
:10314000032084F8350070BD1A682048104061687B
:10315000A2680A43E1680A4321690A4361690A4394
:10316000A1690A43E1690A43216A0A430243616A89
:1031700004291ED01A602668756925F00705636A60
:103180001D43042B07D1A36A1D43E36A1BB12046EC
:10319000FFF770FF90B975612046FFF749FFE26DB8
:1031A0003F239340836000206065012384F835301D
:1031B000C9E7E16A206B01430A43DBE7402363650B
:1031C000012084F83500BEE70120BCE73F8010F005
:1031D00038B50446856D90F8340001282BD00120C5
:1031E00084F8340094F83500C0B2012804D00023DC
:1031F00084F83430022038BD022084F835000020E5
:1032000060652046FFF7FEFEE26D3F239340AB6012
:103210002268136843F016031360236C23B12268FD
:10322000136843F0080313602268136843F0010336
:1032300013600020DFE70220DDE70000F0B583B077
:10324000044600230193724B1D68724BA3FB0535A6
:10325000AD0A876D3E68C26D08239340334210D09B
:1032600003681A6812F0040F0BD01A6822F00402E7
:103270001A60C26D08239340BB60436D43F00103A5
:103280004365E26D01239340334209D022685269BD
:1032900012F0800F04D0BB60636D43F002036365DE
:1032A000E26D04239340334209D02268126812F081
:1032B000020F04D0BB60636D43F004036365E26DED
:1032C00010239340334224D02268126812F0080F72
:1032D0001FD0BB6023681A6812F4802F0DD01B68C2
:1032E00013F4002F04D1236C9BB12046984710E0C3
:1032F000A36C73B1204698470BE01A6812F4807FE4
:1033000003D11A6822F008021A60236C0BB1204620
:103310009847E26D20239340334255D022681268CB
:1033200012F0100F50D0BB6094F83530DBB2052B93
:103330000ED023681A6812F4802F33D01B6813F460
:10334000002F2AD1636C002B3ED0204698473BE0EB
:103350002268136823F0160313602268536923F070
:1033600080035361236CA3B12268136823F0080320
:103370001360E26D3F239340BB60012384F8353036
:10338000002384F83430236D002B3FD0204698472B
:103390003CE0A36C002BE7D1EBE7E36BA3B1204645
:1033A000984711E01A6812F4807F09D11A6822F058
:1033B00010021A60012384F83530002384F8343079
:1033C000E36B0BB120469847636DFBB1636D13F05F
:1033D000010F17D0052384F835302268136823F0D5
:1033E00001031360019B01330193AB4204D82368AE
:1033F0001B6813F0010FF5D1012384F83530002349
:1034000084F83430E36C0BB12046984703B0F0BD2C
:1034100000000020B5814E1B00230F2B00F2E4803A
:1034200070B582B060E085685E000324B44025EA90
:103430000405CC68B4402C438460456825EA020545
:103440004C68C4F300129A402A4342605AE0DC08F8
:10345000083450F8246003F0070295000F22AA40B8
:1034600026EA020E0A69AA4042EA0E0240F8242027
:103470005CE0072200E0002202FA0EF22A43023446
:103480005A4D45F824205A4A94686FEA0C0224EAFF
:103490000C054E6816F4801F01D04CEA0405544C0C
:1034A000A560E46802EA04054E6816F4001F01D026
:1034B0004CEA04054E4CE560646802EA04054E6877
:1034C00016F4003F01D04CEA0405494C65602468BD
:1034D00022404D6815F4803F01D04CEA0402444C70
:1034E000226001330F2B7DD801229A400C6804EA38
:1034F000020C32EA0404F4D14C6804F00304013CE9
:10350000012C90D94A6802F00302032A09D0C4684A
:103510005D000322AA4024EA02048A68AA402243EA
:10352000C2604A6802F00302022A90D004684FEA9F
:10353000430E032202FA0EF224EA02044A6802F061
:10354000030202FA0EF2224302604A6812F4403F7C
:10355000C7D000220192274A546C44F4804454643A
:10356000526C02F480420192019A9C08A51C1F4AE9
:1035700052F8255003F003024FEA820E0F2202FA9E
:103580000EF225EA02051C4A90423FF474AF02F5A0
:10359000806290421AD002F58062904218D002F503
:1035A0008062904216D002F58062904214D002F5FB
:1035B0008062904212D002F58062904210D002F5F3
:1035C000806290423FF455AF082255E7012253E74D
:1035D000022251E703224FE704224DE705224BE781
:1035E000062249E702B070BD704700BF00380140B5
:1035F000003C01400038024000000240002800F07A
:10360000E08170B582B00446036813F0010F3BD02F
:103610009F4B9B6803F00C03042B2CD09C4B9B68A6
:1036200003F00C03082B21D06368B3F5803F4FD023
:10363000B3F5A02F52D0964B1A6822F480321A604C
:103640001A6822F480221A606368002B50D0FFF7BA
:10365000BBF905468E4B1B6813F4003F14D1FFF7EE
:10366000B3F9401B6428F5D90320B1E1884B5B68AE
:1036700013F4800FD8D0864B1B6813F4003F03D09F
:103680006368002B00F09F81236813F0020F54D071
:103690007F4B9B6813F00C0F3ED07D4B9B6803F073
:1036A0000C03082B33D0E368002B68D0794B012240
:1036B0001A60FFF789F90546754B1B6813F0020F76
:1036C00054D1FFF781F9401B0228F5D903207FE18F
:1036D0006F4A136843F480331360B5E76C4B1A6884
:1036E00042F480221A601A6842F480321A60ABE712
:1036F000FFF76AF90546664B1B6813F4003FC3D019
:10370000FFF762F9401B6428F5D9032060E1604BA4
:103710005B6813F4800FC6D15D4B1B6813F0020F7A
:1037200003D0E368012B40F05081594A136823F01D
:10373000F803216943EAC1031360236813F0080FFB
:1037400042D063696BB3534B0122C3F8802EFFF75D
:103750003BF905464E4B5B6F13F0020F34D1FFF778
:1037600033F9401B0228F5D9032031E1484A136898
:1037700023F0F803216943EAC1031360DDE7454BF9
:1037800000221A60FFF720F90546414B1B6813F031
:10379000020FD2D0FFF718F9401B0228F5D90320F9
:1037A00016E13C4B0022C3F8802EFFF70DF90546C9
:1037B000374B5B6F13F0020F06D0FFF705F9401B84
:1037C0000228F5D9032003E1236813F0040F77D012
:1037D0002F4B1B6C13F0805F33D1002301932C4BD4
:1037E0001A6C42F080521A641B6C03F080530193F0
:1037F000019B0125284B1B6813F4807F23D0A3680D
:10380000012B34D0052B38D0214B1A6F22F0010246
:103810001A671A6F22F004021A67A368002B3DD0C2
:10382000FFF7D2F806461A4B1B6F13F0020F46D172
:10383000FFF7CAF8801B41F288339842F3D903207E
:10384000C6E00025D6E7144A136843F4807313607A
:10385000FFF7BAF80646104B1B6813F4807FCED1F1
:10386000FFF7B2F8801B0228F5D90320B0E0084A20
:10387000136F43F001031367CFE7054B1A6F42F054
:1038800004021A671A6F42F001021A67C5E700BF07
:10389000003802400000474200700040FFF794F8F3
:1038A0000646524B1B6F13F0020F08D0FFF78CF83F
:1038B000801B41F288339842F3D9032088E0EDB9A8
:1038C000A369002B00F08380484A926802F00C0242
:1038D000082A51D0022B17D0454B00221A66FFF759
:1038E00073F80446414B1B6813F0007F42D0FFF78A
:1038F0006BF8001B0228F5D9032069E03B4A136CE2
:1039000023F080531364DBE7394B00221A66FFF77C
:103910005BF80546354B1B6813F0007F06D0FFF7B8
:1039200053F8401B0228F5D9032051E0E369226ACD
:103930001343626A43EA8213A26A5208013A43EAD5
:103940000243E26A43EA0263284A5360284B012299
:103950001A66FFF739F80446244B1B6813F0007F02
:1039600006D1FFF731F8001B0228F5D903202FE01C
:1039700000202DE000202BE0012B2BD01B4B5B689F
:1039800003F48001E269914226D103F03F02216AEB
:103990008A4223D1616A47F6C0721A40B2EB811F96
:1039A0001ED103F44031A26A5208013AB1EB024F32
:1039B00018D103F07063E26AB3EB026F14D10020F8
:1039C00006E001207047012002E0012000E0002015
:1039D00002B070BD0120FBE70120F9E70120F7E705
:1039E0000120F5E70120F3E70120F1E7003802406C
:1039F0000000474208B5314B9B6803F00C03042BD1
:103A000057D0082B57D12D4B5A6802F03F025B6804
:103A100013F4800F2AD0294B5968C1F3881C4FEA50
:103A20004C11B1EB0C006EEB0E0E4FEA8E1343EA15
:103A300090638101091A63EB0E03DB0043EA5173C3
:103A4000C90011EB0C0C43F10003590200234FEAAB
:103A50004C2041EADC51FDF779F8184B5B68C3F361
:103A6000014301335B00B0FBF3F025E0134B5968D1
:103A7000C1F3881C4FEA4C11B1EB0C006EEB0E0E3B
:103A80004FEA8E1343EA90638101091A63EB0E0338
:103A9000DB0043EA5173C90011EB0C0C43F1000346
:103AA000990200234FEA8C2041EA9C51FDF74EF821
:103AB000D3E7034800E0034808BD00BF00380240D8
:103AC00000127A000024F400002800F09B8070B5FA
:103AD0000D4604464F4B1B6803F007038B4208D288
:103AE000CBB24C4A1370136803F007038B4240F0CB
:103AF0008B80236813F0020F17D013F0040F04D04B
:103B0000454A936843F4E0539360236813F0080F29
:103B100004D0414A936843F4604393603E4A9368FB
:103B200023F0F003A1680B439360236813F0010FA7
:103B300032D06368012B21D09A1E012A25D9364A3A
:103B4000126812F0020F61D033498A6822F0030232
:103B500013438B60FEF738FF06462F4B9B6803F03C
:103B60000C036268B3EB820F16D0FEF72DFF801BAB
:103B700041F288339842F0D9032042E0264A126885
:103B800012F4003FE0D101203BE0234A126812F01A
:103B9000007FD9D1012034E01E4B1B6803F00703DE
:103BA000AB4207D9EAB21B4B1A701B6803F007033C
:103BB000AB422DD1236813F0040F06D0164A936848
:103BC00023F4E053E1680B439360236813F0080F7C
:103BD00007D0114A936823F46043216943EAC10383
:103BE0009360FFF707FF0C4B9B68C3F303130B4A6B
:103BF000D35CD8400A4B18600A4B1868FEF798FE51
:103C0000002070BD012070470120FAE70120F8E78D
:103C10000120F6E7003C02400038024048DA000884
:103C20000000002008000020014B1868704700BF0A
:103C30000000002008B5FFF7F7FF044B9B68C3F3B3
:103C40008223034AD35CD84008BD00BF003802403D
:103C500058DA000808B5FFF7E7FF044B9B68C3F389
:103C60004233034AD35CD84008BD00BF003802404D
:103C700058DA000810B4036A046A24F001040462EC
:103C8000846924F0F00C4CEA021223F00A030B437F
:103C9000826103625DF8044B704710B4046A24F03B
:103CA000100404628469036A24F4704C4CEA023202
:103CB00023F0A00343EA0113826103625DF8044B21
:103CC0007047836823F070030B4343F0070383605E
:103CD0007047000090F83D30DBB2012B32D1022357
:103CE00080F83D300368194A934220D0B3F1804FE9
:103CF0001DD0A2F57C42934219D002F58062934216
:103D000015D002F58062934211D002F578429342B9
:103D10000DD002F57052934209D0A2F5943293422D
:103D200005D01A6842F001021A60002070479A68B4
:103D300002F00702062A07D01A6842F001021A6050
:103D400000207047012070470020704700000140AC
:103D50000368304A904212D0B0F1804F0FD0A2F5E4
:103D60007C4290420BD002F58062904207D002F56F
:103D70008062904203D002F57842904203D123F052
:103D800070034A681343234A90422AD0B0F1804F0F
:103D900027D0A2F57C42904223D002F58062904267
:103DA0001FD002F5806290421BD002F5784290420B
:103DB00017D002F57052904213D002F58062904203
:103DC0000FD002F5806290420BD0A2F5983290425B
:103DD00007D002F58062904203D002F580629042E3
:103DE00003D123F44073CA68134323F080034A6964
:103DF000134303608B68C3620B688362054B984270
:103E000003D003F58063984201D10B69036301235A
:103E1000436170470000014040B310B5044690F87C
:103E20003D30F3B1022384F83D30214651F8040BB4
:103E3000FFF78EFF012384F8463084F83E3084F883
:103E40003F3084F8403084F8413084F8423084F8C0
:103E5000433084F8443084F8453084F83D30002005
:103E600010BD80F83C30FEF7F7FCDBE7012070471F
:103E700010B4846824F47F4C42EA03220A4342EAE5
:103E80000C0282605DF8044B704790F83C30012BC7
:103E900078D010B50446012380F83C30022380F826
:103EA0003D300268936823F47F4323F077039360E7
:103EB0000B68602B4CD029D8402B54D00CD9502BF8
:103EC00022D1CA6849680068FFF7D4FE50212068F3
:103ED000FFF7F7FE002005E0202B0DD009D9302B8D
:103EE0000AD00120012384F83D30002384F83C30BF
:103EF00010BD0BB1102B05D119462068FFF7E1FE6C
:103F00000020EFE70120EDE70120EBE7B3F5805F4C
:103F100034D0B3F5005F0CD1CB684A68896800687B
:103F2000FFF7A6FF2268936843F480439360002064
:103F3000D8E7702B24D1CB684A6889680068FFF7FE
:103F400097FF2268936843F0770393600020C9E7E6
:103F5000CA6849680068FFF7A0FE60212068FFF783
:103F6000B0FE0020BEE7CA6849680068FFF782FE1D
:103F700040212068FFF7A5FE0020B3E70020B1E74D
:103F80000120AFE70220704790F83C30012B3DD074
:103F900010B4012380F83C30022380F83D300368E0
:103FA0005A689C6822F0700C0A6842EA0C025A6057
:103FB0000368174A93421AD0B3F1804F17D0A2F585
:103FC0007C42934213D002F5806293420FD002F5F7
:103FD000806293420BD002F57842934207D002F5FB
:103FE0007052934203D0A2F59432934204D124F04C
:103FF00080044A6814439C60012380F83D3000230C
:1040000080F83C3018465DF8044B7047022070473A
:104010000000014038B504460268136923F4405398
:10402000C1680B43136183680269134342691343F8
:10403000C2691A430168CB6823F4164323F00C03CA
:104040001343CB600268536923F4407381690B43C7
:1040500053610368314A934206D002F5806293426D
:1040600002D0FFF7E7FD01E0FFF7F4FDE369B3F5E8
:10407000004F29D00021031849411B1841F10001CC
:10408000C90041EA5371DB00181863684FEA8302E4
:104090004FEA937341F10001FCF758FD204DA5FB59
:1040A00000325109642303FB11031B013233A5FBCA
:1040B00003235B0903F0F00202EB011203F00F038C
:1040C000216813448B6038BD0023021843EB0301C1
:1040D000121841F10001C90041EA5271D2001018D2
:1040E00041F10001626892185B41FCF72FFD0C4D15
:1040F000A5FB00325109642303FB1103DB003233BB
:10410000A5FB03235B095A0002F4F87202EB0112CB
:1041100003F00703216813448B60D4E700100140CB
:104120001F85EB512DE9F84305460F461646994683
:10413000DDF820802C68246837EA04030CBF4FF0B8
:10414000010C4FF0000CB4452DD1B8F1FF3FF1D078
:10415000B8F1000F05D0FEF737FCA0EB0900404591
:10416000E8D92A6802F10C0353E8003F23F4D07326
:104170000C3242E800310029F3D12A6802F114031D
:1041800053E8003F23F00103143242E800310029D4
:10419000F3D1202385F83D3085F83E30002385F8A3
:1041A0003C30032000E00020BDE8F88358B310B590
:1041B000044690F83D300BB3242384F83D30226848
:1041C000D36823F40053D3602046FFF723FF22680F
:1041D000136923F4904313612268536923F02A037F
:1041E00053612268D36843F40053D36000202064F5
:1041F000202384F83D3084F83E3010BD80F83C30F8
:10420000FEF75CFBD8E7012070472DE9F04182B052
:104210001E4690F83D30DBB2202B54D104460D46AB
:104220009046002953D0002A53D090F83C30012BFF
:1042300051D0012380F83C3000230364212380F80F
:104240003D30FEF7C1FB0746A4F82480A4F8268081
:10425000A368B3F5805F05D04FF00008002384F811
:104260003C3012E0236913B14FF00008F6E7A8468E
:104270000025F3E738F8023B2268C3F308035360D4
:10428000E28C92B2013A92B2E284E38C9BB273B1B7
:1042900000963B46002280212046FFF743FFE0B90D
:1042A000002DE7D015F8012B23685A60E8E7009647
:1042B0003B46002240212046FFF734FF78B92023F7
:1042C00084F83D3000E0022002B0BDE8F08101201A
:1042D000FAE70120F8E70220F6E70320F4E70320DD
:1042E000F2E72DE9F04182B01E4690F83E30DBB295
:1042F000202B5CD104460D46904600295BD0002A55
:104300005BD090F83C30012B59D0012380F83C3031
:1043100000230364222280F83E200363FEF754FB4F
:104320000746A4F82C80A4F82E80A368B3F5805F1C
:1043300005D04FF00008002384F83C3017E02369D3
:1043400013B14FF00008F6E7A8460025F3E723680D
:104350005B68C3F3080328F8023B03E023685B684B
:104360002B700135E28D92B2013A92B2E285E38D73
:104370009BB2BBB100963B46002220212046FFF7AE
:10438000D1FEF0B9002DE2D0A368B3F5805FE5D08F
:1043900013B92369002BE1D023685B6803F07F0326
:1043A0002B70DEE7202384F83E30002000E002205E
:1043B00002B0BDE8F0810120FAE70120F8E7022011
:1043C000F6E70320F4E70000DFF834D00D480E498B
:1043D0000E4A002302E0D458C4500433C4188C425F
:1043E000F9D30B4A0B4C002301E013600432A242C4
:1043F000FBD3FEF7EFF900F017F8FDF755FF704714
:104400000000022000000020B8090020ECDE0008B7
:10441000B8090020147C0020FEE70000014B18685A
:10442000704700BF0C00002070B50D4E0D4D761B7F
:10443000B61006D0002455F8043B01349847A64234
:10444000F9D1094E094D761B06F0D8FBB61006D0FF
:10445000002455F8043B01349847A642F9D170BDB9
:10446000E0DE0008E0DE0008E8DE0008E0DE00082C
:10447000830730B548D0541E002A3FD0CAB2034645
:1044800001E0013C3AD303F8012B9D07F9D1032C3D
:104490002DD9CDB245EA05250F2C45EA054536D97B
:1044A000A4F1100222F00F0C03F1200EE6444FEAB3
:1044B000121C03F1100242E9045542E90255103280
:1044C0007245F8D10CF1010214F00C0F03EB02124B
:1044D00004F00F0C13D0ACF1040323F003030433F6
:1044E000134442F8045B9342FBD10CF003042CB15B
:1044F000CAB21C4403F8012B9C42FBD130BD644678
:104500001346002CF4D1F9E703461446BFE71A46D8
:10451000A446E0E70FB400B5074983B004AB0868D0
:1045200053F8042B8168019300F0E2F803B05DF8C2
:1045300004EB04B0704700BF0C0000202DE9F043ED
:10454000694CD4F8008083B004460E4617461D46D9
:10455000B8F1000F03D0D8F83830002B77D0022FF5
:1045600005D0012F00F2AC80002DC0F2A980636E4F
:10457000DA0752D52146404603F008F8216B41B1D5
:1045800004F14003994202D0404603F02BF9002386
:104590002363B4F90CC000231CF0800FA361636097
:1045A00064D12CF44A6C2CF0030C022FA4F80CC03C
:1045B0006AD001AB6A462146404603F0B9FAA389A6
:1045C0001843A081002D2FD0002E2ED0D8F83830DF
:1045D000002B38D0009B2660AB42B4F90C301CBFD6
:1045E00043F40063A381012F04BF43F00103A381BF
:1045F0009AB213F00803C4E904652CD0D1075DD545
:104600006D42A561656E002315F00105A36027D0FA
:104610000025284603B0BDE8F083A3899B05A9D4F3
:10462000A06D03F011FAA5E7009D284603F0B0FA4B
:104630000646002847D0A38943F08003A381D8F819
:104640003830002BC6D1404602F0D4FFC2E74046C6
:1046500002F0D0FF83E7A360656E15F00105D7D1A6
:10466000930524D5284603B0BDE8F0832169404670
:1046700003F0B8F8B4F90CC02CF44A6C2CF0030C1D
:10468000022FA4F80CC094D10025002204F14303AA
:10469000A2600122C4E904322360636E4CF0020C74
:1046A000D807A4F80CC0DDD41CF4007FDAD1A06DCB
:1046B00003F0CCF9284603B0BDE8F083A560CBE752
:1046C0004FF0FF35CEE7DDF80090A94504D048460D
:1046D00003F05EFA064620B9B4F90CC04FF0FF357E
:1046E000D3E74D46A7E700BF0C0000200000000004
:1046F0002DE9F04F2DED0A8BCFB01C460AEE101AB3
:1047000091460AEE900A054603F096F90368139362
:1047100018460994FCF794FC12901DB1AB6B002B6A
:1047200000F048821AEE102A536EDB0740F14781F1
:10473000B2F90C309AB2960409D41AEE101A43F466
:1047400000538B819AB24B6E23F400534B661507CE
:1047500040F1CC801AEE103A1B69002B00F0C680A5
:1047600002F01A030A2B00F0D2804D469FED9C7B8D
:104770002B78002425AACDE92344CDE91544CDE9C1
:1047800017448DED107B1AEE909A0E94229290466B
:1047900014940694002B00F0B081AB4604E01BF8A3
:1047A000013F002B00F0CD80252BF8D1BBEB050697
:1047B00040F0CB809BF80030002B00F09E8100235E
:1047C0004FF0FF329BF801708DF86B3005930BF1C1
:1047D000010B04929A462B2420210BF1010BA7F127
:1047E00020035A2B00F20081DFE813F00A03FE00D9
:1047F000FE000503FE00FE00FE006A00FE00FE0053
:1048000076029E02FE008102A802FE00A3025B0067
:104810005B005B005B005B005B005B005B005B00C0
:10482000FE00FE00FE00FE00FE00FE00FE008E0107
:10483000FE001602ED018E018E018E01FE00FE00CB
:10484000FE00FE000003FE00FE004502FE00FE002A
:10485000FE002002FE00C202FE00FE009907FE00DC
:10486000FE00FE00FE00FE00FE00FE00FE008E01C7
:10487000FE001602EF018E018E018E01E602EF01AD
:10488000E801FE00F302FE0086024702D402E801BE
:10489000FE0020027D007507FE00FE007907FE0085
:1048A0007D00A7F1300300221BF8017B02EB82029E
:1048B00003EB4202A7F13003092BF5D905928EE7ED
:1048C000484603F0B9F8436817931846FCF7B8FB5D
:1048D00018900646484603F0AFF8836815932021E8
:1048E000002E40F0E9869BF8007076E71AEE101A69
:1048F0001AEE900A1AEE105A01F002FD002841F05B
:104900002783AA8902F01A030A2B7FF42EAF1AEE2E
:10491000101AB1F90E30002BFFF627AF4B6ED907F6
:1049200002D4920541F15A811AEE101A1AEE900A39
:1049300023464A464FB0BDEC0A8BBDE8F04F01F06C
:104940009FBCBBEB050600F0D880249B3344249326
:10495000239B0133072BC8E90056239305DC08F19C
:104960000808069B3344069324E71AEE101A22AA7D
:10497000484604F085F890B90DF19408F1E71AEE75
:10498000101A22AA484604F07BF8002800F0A680FE
:10499000089B23B11AEE900A194602F023FF1AEE83
:1049A000102A536ED80740F1FA8093895A0601F114
:1049B000D88206984FB0BDEC0A8BBDE8F08FB2F9F3
:1049C0000C309F059AB23FF5B6AE1AEE105AA86D9C
:1049D00003F03AF8B5F90C309AB2ACE6AFF30080C8
:1049E0000000000000000000002F00F0868000237F
:1049F0008DF8D4708DF86B300122CDE90723039236
:104A000004930C930F930D9335AD1AF002020A92A2
:104A100002D0039A023203921AF084020B9205D15B
:104A2000059A0399561A002E00F36883249C8BB1D3
:104A3000239B0DF16B0201330134C8F80020072BD2
:104A40004FF0010224942393C8F8042000F39F83BD
:104A500008F108080A9B83B1239B1BAA0133023487
:104A6000C8F80020072B4FF0020224942393C8F8C3
:104A7000042000F3998308F108080B9B802B00F0B9
:104A80006A82049B079A9E1A002E00F3AB821AF4E6
:104A9000807F40F00682079BC8F804301C44239BAB
:104AA000C8F800500133072B2494239300F3198393
:104AB00008F108081AF0040F05D0059B039A9D1A07
:104AC000002D00F38583DDE9052303998A42ACBFFD
:104AD0009B185B180693002C7FF451AF002323939F
:104AE000089B1BB10899484602F07CFE0DF1940822
:104AF0005D462B78002B7FF450AE249B002B41F0B9
:104B00001B82002323934AE7099B073323F0070303
:104B1000B3EC027B8DED107BDDE91012099322F0DE
:104B200000430BEE101A0BEE903A4FF0FF32B0EE4E
:104B30004B9AF0EE6B9AB74B51EC190BFCF7EEFA6F
:104B4000002840F0E884B34B51EC190B4FF0FF32D2
:104B5000FBF78EFF002840F0DE84DDE91001002223
:104B60000023FBF77BFF002840F067879DF86B3040
:104B7000A94DAA4A2AF0800A0321472FC8BF15462B
:104B8000002208920391079104920C920F920D92C9
:104B9000002B3FF43AAF039A0132039235E7938931
:104BA00099053FF503AF1AEE104A906D02F04EFFE3
:104BB000A389FBE6284602F01DFDB3E59BF80070D3
:104BC0004AF0200A09E64AF0100A1AF0200F099B61
:104BD00000F04084073323F007031A465B6852F85D
:104BE000084B09921E46002BC0F24384049B0133FC
:104BF00000F0BC822AF08003039354EA060340F0DD
:104C0000B782049B002B40F0B882DDF80CA0002393
:104C1000049307934EAD1FE1099A002352F8041B39
:104C20008DF86B308DF8D4100992E5E6099C54F8A4
:104C3000045B00268DF86B60002D00F08F85049BCF
:104C40005A1C00F051861A4631462846FCF700F9F6
:104C50000890002801F02F81089B0496591B0791AA
:104C600021EAE1719DF86B300994039108960C9646
:104C70000F960D968CE74AF0100A1AF0200600F005
:104C8000C983099B073323F007035E6853F8084B79
:104C900009932AF480630393002300228DF86B208C
:104CA000049A551C00F0C080039921F0800A54EA50
:104CB000060140F0B780002A40F00786002BA6D1FD
:104CC000039B13F00103079300F0148430238DF845
:104CD00037310DF23715BFE0099B53F8042B0592CD
:104CE000002A80F2D583059A0993524205929BF8D7
:104CF00000704AF0040A70E51AF0200F40F0D184E9
:104D00001AF0100F40F0E7851AF0400F40F0A98626
:104D10001AF4007F00F0DF85099B069953F8042BF5
:104D2000099311705D46E4E69BF800708DF86B40C6
:104D300053E59BF800704AF0800A4EE55A4612F897
:104D4000017B2A2F01F06F82A7F13003092B9346D4
:104D500098BF002201F2EC801BF8017B02EB82027B
:104D600003EB4202A7F13003092BF5D9049236E593
:104D70004AF010030393039B13F0200600F05983BD
:104D8000099B073323F007035E6853F8084B099328
:104D9000012382E7099B53F8044B099330234AF01F
:104DA000020278278DF86C301D4B149303928DF816
:104DB0006D700026022370E79BF80070682F03BF18
:104DC0009BF801704AF4007A0BF1010B4AF0400A9B
:104DD00003E59BF800706C2F03BF9BF801704AF04D
:104DE000200A0BF1010B4AF0100AF6E49BF8007060
:104DF0004AF0080AF1E49BF800704AF0010AECE47A
:104E00009DF86B30002B7FF46EAD9BF800708DF831
:104E10006B10E2E4FFFFEF7F6CDA000870DA000845
:104E20007CDA0008CDF80CA0012B00F0A181022B48
:104E30004EAD20D1149A04F00F032409D35C05F879
:104E4000013D44EA0674360954EA0603F3D14EAB39
:104E50005B1BDDF80CA00793049907989DF86B3055
:104E600081424FF00002B8BF0146089203910C92B4
:104E70000F920D928CE604F00703E40844EA4674AE
:104E8000F608303354EA06012A4605F8013DF2D10E
:104E90000399CC0700F175824EAB5B1B8A460793E2
:104EA000DAE7652F40F3D780DDE910010022002307
:104EB000FBF7CAFD002800F0C681239BC14AC8F851
:104EC0000020013301340122072B24942393C8F8D6
:104ED000042000F3DE8408F108081C9B0E9A93421C
:104EE00080F2D182129B139A1C44C8E90023239BB1
:104EF00024940133072B239300F3228408F108083C
:104F00000E9B5D1E002D7FF7D5AD102D239B41F329
:104F10006981AD4F0A97224610261AEE104A05E025
:104F200008F10808103D102D40F3C1840133103200
:104F3000072BC8E90076CDE92332F1DD22AA21460C
:104F4000484603F09DFD00287FF422ADDDE92332C1
:104F50000DF19408E6E7059B039A9E1A002E7FF751
:104F600090AD102E239B41F33F8097490B9522462D
:104F70001AEE105A0A910C4604E0103E102E08F169
:104F8000080819DD013310321021072BCDE9233237
:104F9000C8F80040C8F80410EFDD22AA29464846A8
:104FA0000DF1940803F06CFD00287FF4F1AC103E85
:104FB000102EDDE92332E5DC0B9D144601330A9AFD
:104FC000C8F800203444072BCDE92334C8F8046026
:104FD00000F3A883049B079A9E1A002E08F1080884
:104FE0007FF755AD102E239B40F30F8576480A902E
:104FF000424621461AEE108A044604E0103E102E66
:1050000002F1080216DD013310311020072BCDE923
:10501000233114605060F1DD22AA4146484603F076
:105020002FFD00287FF4B4AC103E102EDDE92331B3
:1050300025AAE8DC90460C4601330A9AC8F80020FD
:105040003444072BCDE92334C8F8046000F3D4813D
:1050500008F108081BE50E9B012B40F37381239E8A
:10506000C8F80050013601340123072E24942396FA
:10507000C8F8043000F3968308F10808129B139ACD
:1050800001361C44072EC8E90023CDE9236400F350
:10509000978308F10808DDE9100100220023FBF7DF
:1050A000D3FC002840F07B810E9B0136013B01358B
:1050B0001C44072EC8F800502396C8F804302494E6
:1050C00000F3518108F10808169BC8F80430013636
:1050D0001C44072E1EABCDE92364C8F800307FF7CF
:1050E000E7AC1AEE101A22AA484603F0C9FC0028C1
:1050F0007FF44EAC249C0DF19408DBE4102EDDE926
:10510000233222DD199510241AEE105A04E0103EC5
:10511000102E08F1080817DD01332C491032072B37
:10512000C8E90014CDE92332F1DD22AA2946484618
:105130000DF1940803F0A4FC00287FF429AC103E84
:10514000102EDDE92332E7DC199DC8F80460013335
:10515000B418072B1D4AC8F80020CDE9233400F30A
:105160007D839DF86B3008F1080860E4CDF80CA051
:105170000A2C76F1000380F0318330340123DDF80E
:105180000CA08DF8374107930DF2371564E61AEE3F
:10519000101A22AA484603F073FC00287FF4F8ABEB
:1051A000249C0DF1940855E41AEE101A22AA4846E0
:1051B00003F066FC00287FF4EBAB249C0DF194080F
:1051C0005BE400BFACDA0008C0DA0008B0DA00081F
:1051D000102D239B20DD1AEE107A102604E0103DDE
:1051E000102D08F1080817DD0133AC4A1034072BE5
:1051F000C8E90026CDE92334F1DD22AA3946484624
:105200000DF1940803F03CFC00287FF4C1AB103D85
:10521000102DDDE92334E7DC0133A04AC8F804503F
:105220002C44072BCDE92334C8F800207FF74BAC82
:105230001AEE101A22AA484603F022FC00287FF436
:10524000A7AB249C3FE41C9A002A40F32B81DDE9A4
:105250000D739F42A8BF1F46002F0BDD239B013318
:105260003C44072BC8E900572494239300F3D585C9
:1052700008F108080D9E002FA8BFF61B002E00F3B2
:1052800044830D9B1AF4806F2B44079340F0E38412
:105290001C9B0E9A934203DB1AF0010F00F0D2839D
:1052A000129A13991444C8E90012239A24940132E3
:1052B000072A239200F3BF8508F108080E9A079980
:1052C000AE18761AD51AAE42A8BF2E46002E0DDDB6
:1052D000239BC8F8001001333444072BC8F804603E
:1052E0002494239300F3098608F10808002EA8BF30
:1052F000AD1B002D7FF7DEAB102D239B40F3728793
:10530000674F0A97224610261AEE104A05E008F168
:105310000808103D102D40F3CA8201331032072BCC
:10532000C8E90076CDE92332F1DD22AA21464846BC
:1053300003F0A6FB00287FF42BABDDE923320DF14F
:105340009408E6E71AF0010F7FF489AE239EC8F8AF
:105350000050013601340123072E24942396C8F807
:1053600004307FF7AFAE1AEE101A22AA484603F0B7
:1053700087FB00287FF40CABDDE923640DF1940872
:10538000A2E6302B3FF463AD3023023A05F8013C2E
:105390004EAB9B1ADDF80CA0079315465CE50E9BFF
:1053A0005D1E002D7FF790AE102D40F321873C4A03
:1053B000CDF810A023461AEE10AA0A921027144620
:1053C00005E008F10808103D102D40F3E382013696
:1053D0001033072EC8E90047CDE92363F1DD22AA87
:1053E0005146484603F04CFB00287FF4D1AADDE982
:1053F00023630DF19408E6E71AEE101A22AA484634
:1054000003F03EFB00287FF4C3AA249C0DF194080E
:10541000FFF73DBB1AF0100340F03D811AF0400247
:1054200000F0C882099A52F8044B09921E46A4B2B1
:105430002FE4039B13F0100366D1039A12F040028D
:1054400000F0C682099A52F8044B09921E46A4B293
:10545000012322E453F8044B09931AF0100F4FD1A3
:105460001AF0400F48D044F3C036334624B2FFF759
:10547000BABB2D2364428DF86B3066EB4606CDF83F
:105480000CA001230CE41AF0010F3FF413AB29E543
:105490009BF800700993FFF7A0B900BFB0DA0008CD
:1054A000C0DA0008239BB649C8F800100133013464
:1054B0000121072B24942393C8F8041000F384845B
:1054C00008F10808002A40F046820E9A0AF001030B
:1054D00013433FF4EFAA129B139A1C44C8E900231C
:1054E000239B24940133072B239300F3688308F153
:1054F000080841E24EADAFE41AF4007F40F0AB8201
:10550000E6173346FFF76FBB099B53F8044B09932B
:105510000123FFF7C2BBDDE9100102460B46FBF792
:10552000FDFD002840F02E86612F00F07F85412F81
:1055300000F0A082049B013327F02003039300F0C6
:10554000C085472B00F0AB85DDE910014AF480727D
:10555000002907924FF00003C0F2458441EC180B7C
:105560000A930893039B462B00F07484452B00F0AC
:105570002585B0EE480AF0EE680A20AB01931DAB1A
:105580000093049A1CAB0221484600F0C9FF039B1C
:10559000472B054640F05E861AF0010F5646DDF8AF
:1055A0001CA040F0E384209B5B1B0E93039B472BC6
:1055B00000F01B83039B462B00F089841C9B0D93FA
:1055C0000D9B039A013B412A1C9300F0E985FAB236
:1055D0000021002BB8BF0D9B8DF87820BABFC3F116
:1055E00001032D222B22092B8DF8792040F36D85A4
:1055F0000DF18704DFF898C1224610468CFB032189
:10560000DA17C2EBA10202EB8201A3EB41013031B8
:1056100000F8011C19466329134600F1FF32ECDC47
:105620003033D9B2831E9C4202F8011C40F20E8630
:1056300013460DF17A0201E013F8011B02F8011B79
:105640009C42F9D10DF189030DF17A021B1A134422
:105650001EAA9B1A16930E9B169A012B1A440792A8
:1056600040F3B285079B129A13440793079A0023CD
:1056700026F4806622EAE27246F4807A0C93039262
:105680000F930D930A9B002B40F0DE8204939DF84C
:105690006B30FFF77DBA099B53F8044B0993FFF772
:1056A000F8BA099B069853F8041B0993C217C1E97D
:1056B00000025D46FFF71DBA159B002B3FF413A9AE
:1056C000159B1B78002B3FF40EA99BF800704AF441
:1056D000806AFFF782B8CDF80CA0FFF74CBB294BCE
:1056E00014931AF0200655D0099B073323F00703C3
:1056F0005E6853F8084B09931AF0010F09D054EA79
:10570000060306D030238DF86D704AF0020A8DF83A
:105710006C302AF4806303930223FFF7BEBA1A4B5E
:105720001493DEE71AEE101A22AA484603F0A8F9ED
:1057300000287FF42DA9249C0DF19408FFF7A1B94E
:105740001AEE101A22AA484603F09AF900287FF4AC
:105750001FA9249C0DF19408FFF7D2BB049A089569
:10576000062A294628BF062204952B460392074D98
:10577000099407920C910F910D91FFF709BA00BFA0
:10578000ACDA00087CDA000890DA0008A4DA000835
:10579000676666661AF0100370D0099B53F8044BD5
:1057A0000993A9E71AEE101A22AA484603F068F9ED
:1057B00000287FF4EDA8DDE923640DF194085DE491
:1057C0001AEE101A22AA484603F05AF900287FF46C
:1057D000DFA8DDE923640DF194085CE4039B00225B
:1057E00003F48063CDE9077809EE109A0DF59C7AF1
:1057F000DDF85490174698460CE0002320463146C9
:105800000A22FBF7A3F90A2C76F100031CD3044605
:105810000E46AA4620460A2200233146FBF796F997
:1058200030320AF1FF3501370AF8012CB8F1000FC8
:10583000E3D099F800309F42DFD1FF2FDDD00A2C52
:1058400076F1000380F0E580CDF854900E97DDF8F6
:105850002080079F19EE109AFFF7F9BA1AEE101A76
:1058600022AA484603F00CF900287FF491A89DF87D
:105870006B30249C0DF19408FFF7D9B81AF0400260
:1058800000F0B680099A52F8044B09921E46A4B261
:1058900032E71AEE101A22AA484603F0F1F800285F
:1058A0007FF476A8249C0DF19408FFF716BB1446EC
:1058B00001330A9AC8F800202C44072BC8F804507A
:1058C000CDE923347FF7F4A80BE4012BCDF80CA02D
:1058D0007FF4ADAA51E4099B069953F8042B5D4669
:1058E00011600993FFF705B9284604960994FBF760
:1058F000A7FB20EAE0719DF86B30079003910896B2
:105900000C960F960D96FFF743B9102E239B40F38C
:105910009684BC480A90424621461AEE108A102707
:10592000044604E00832103E102E40F33B8201335F
:105930001031072BC2E90047CDE92331F2DD22AA5D
:105940004146484603F09CF800287FF421A8DDE991
:10595000233125AAE7E7129B13991C44C8E90013D9
:10596000239B24940133072B239300F3288108F110
:105970000808002AC0F2FD820E9AC8F800500133D0
:105980001444072BCDE92334C8F804207FF790A8EE
:10599000FFF7A7BBDDF810A01C4601360A9BC8F82C
:1059A00000302C44072ECDE92364C8F804507FF75B
:1059B00089ABD8E4099B1AF4007614BF53F8044B62
:1059C00053F8044B09931CBF1646E4B2FFF761B9C4
:1059D000039B13F40076099B14BF53F8044B53F850
:1059E000044B09931CBF1646E4B20123FFF755B9D7
:1059F000099B1AF4007614BF53F8044B53F8044B78
:105A000009931CBF1646E4B276E67E4A0A92FFF777
:105A100013BB189B1799ED1A1A46284602F0C2FFCD
:105A200099F801300BB109F10109204631460A22EB
:105A300000230027FBF78AF8E9E62D238DF86B3069
:105A4000FFF796B80E9A0799AE18761AD51AAE4295
:105A5000A8BF2E464AE444F3C016334664B2FFF7AB
:105A6000C2B8099B069953F8042B099311805D462F
:105A7000FFF73FB830238DF86C3058238DF86D3028
:105A8000049B632B4AF0020400F3D58200230893A1
:105A900035ADDDE910124AF481730793002A27F02F
:105AA0002003A2460393C0F29F81002342EC181BFF
:105AB0000A93612F00F04A83412F7FF453ADB0EE7B
:105AC000480AF0EE680A1CA802F0DEFE00224FF041
:105AD0007F5351EC100BFAF74FFD02460B4643EC97
:105AE000192B00220023FAF7AFFF08B101231C9302
:105AF000454B0B93049B1995CDE90C7BCDE90EA882
:105B00000CEE109ADDF82CB059EC198B5E1E2C4669
